{
  "_format": "hh-sol-artifact-1",
  "contractName": "NFTMarketplace",
  "sourceName": "contracts/NFTMarketplace.sol",
  "abi": [
    {
      "inputs": [],
      "stateMutability": "nonpayable",
      "type": "constructor"
    },
    {
      "anonymous": false,
      "inputs": [
        {
          "indexed": true,
          "internalType": "address",
          "name": "owner",
          "type": "address"
        },
        {
          "indexed": true,
          "internalType": "address",
          "name": "approved",
          "type": "address"
        },
        {
          "indexed": true,
          "internalType": "uint256",
          "name": "tokenId",
          "type": "uint256"
        }
      ],
      "name": "Approval",
      "type": "event"
    },
    {
      "anonymous": false,
      "inputs": [
        {
          "indexed": true,
          "internalType": "address",
          "name": "owner",
          "type": "address"
        },
        {
          "indexed": true,
          "internalType": "address",
          "name": "operator",
          "type": "address"
        },
        {
          "indexed": false,
          "internalType": "bool",
          "name": "approved",
          "type": "bool"
        }
      ],
      "name": "ApprovalForAll",
      "type": "event"
    },
    {
      "anonymous": false,
      "inputs": [
        {
          "indexed": true,
          "internalType": "uint256",
          "name": "tokenId",
          "type": "uint256"
        },
        {
          "indexed": false,
          "internalType": "address",
          "name": "seller",
          "type": "address"
        },
        {
          "indexed": false,
          "internalType": "address",
          "name": "owner",
          "type": "address"
        },
        {
          "indexed": false,
          "internalType": "uint256",
          "name": "price",
          "type": "uint256"
        },
        {
          "indexed": false,
          "internalType": "bool",
          "name": "sold",
          "type": "bool"
        }
      ],
      "name": "MarketItemCreated",
      "type": "event"
    },
    {
      "anonymous": false,
      "inputs": [
        {
          "indexed": true,
          "internalType": "address",
          "name": "from",
          "type": "address"
        },
        {
          "indexed": true,
          "internalType": "address",
          "name": "to",
          "type": "address"
        },
        {
          "indexed": true,
          "internalType": "uint256",
          "name": "tokenId",
          "type": "uint256"
        }
      ],
      "name": "Transfer",
      "type": "event"
    },
    {
      "inputs": [
        {
          "internalType": "address",
          "name": "to",
          "type": "address"
        },
        {
          "internalType": "uint256",
          "name": "tokenId",
          "type": "uint256"
        }
      ],
      "name": "approve",
      "outputs": [],
      "stateMutability": "nonpayable",
      "type": "function"
    },
    {
      "inputs": [
        {
          "internalType": "address",
          "name": "owner",
          "type": "address"
        }
      ],
      "name": "balanceOf",
      "outputs": [
        {
          "internalType": "uint256",
          "name": "",
          "type": "uint256"
        }
      ],
      "stateMutability": "view",
      "type": "function"
    },
    {
      "inputs": [
        {
          "internalType": "uint256",
          "name": "tokenId",
          "type": "uint256"
        }
      ],
      "name": "createMarketSale",
      "outputs": [],
      "stateMutability": "payable",
      "type": "function"
    },
    {
      "inputs": [
        {
          "internalType": "string",
          "name": "tokenURI",
          "type": "string"
        },
        {
          "internalType": "uint256",
          "name": "price",
          "type": "uint256"
        }
      ],
      "name": "createToken",
      "outputs": [
        {
          "internalType": "uint256",
          "name": "",
          "type": "uint256"
        }
      ],
      "stateMutability": "payable",
      "type": "function"
    },
    {
      "inputs": [],
      "name": "fetchItemsListed",
      "outputs": [
        {
          "components": [
            {
              "internalType": "uint256",
              "name": "tokenId",
              "type": "uint256"
            },
            {
              "internalType": "address payable",
              "name": "seller",
              "type": "address"
            },
            {
              "internalType": "address payable",
              "name": "owner",
              "type": "address"
            },
            {
              "internalType": "uint256",
              "name": "price",
              "type": "uint256"
            },
            {
              "internalType": "bool",
              "name": "sold",
              "type": "bool"
            }
          ],
          "internalType": "struct NFTMarketplace.MarketItem[]",
          "name": "",
          "type": "tuple[]"
        }
      ],
      "stateMutability": "view",
      "type": "function"
    },
    {
      "inputs": [],
      "name": "fetchMarketItems",
      "outputs": [
        {
          "components": [
            {
              "internalType": "uint256",
              "name": "tokenId",
              "type": "uint256"
            },
            {
              "internalType": "address payable",
              "name": "seller",
              "type": "address"
            },
            {
              "internalType": "address payable",
              "name": "owner",
              "type": "address"
            },
            {
              "internalType": "uint256",
              "name": "price",
              "type": "uint256"
            },
            {
              "internalType": "bool",
              "name": "sold",
              "type": "bool"
            }
          ],
          "internalType": "struct NFTMarketplace.MarketItem[]",
          "name": "",
          "type": "tuple[]"
        }
      ],
      "stateMutability": "view",
      "type": "function"
    },
    {
      "inputs": [],
      "name": "fetchMyNfts",
      "outputs": [
        {
          "components": [
            {
              "internalType": "uint256",
              "name": "tokenId",
              "type": "uint256"
            },
            {
              "internalType": "address payable",
              "name": "seller",
              "type": "address"
            },
            {
              "internalType": "address payable",
              "name": "owner",
              "type": "address"
            },
            {
              "internalType": "uint256",
              "name": "price",
              "type": "uint256"
            },
            {
              "internalType": "bool",
              "name": "sold",
              "type": "bool"
            }
          ],
          "internalType": "struct NFTMarketplace.MarketItem[]",
          "name": "",
          "type": "tuple[]"
        }
      ],
      "stateMutability": "view",
      "type": "function"
    },
    {
      "inputs": [
        {
          "internalType": "uint256",
          "name": "tokenId",
          "type": "uint256"
        }
      ],
      "name": "getApproved",
      "outputs": [
        {
          "internalType": "address",
          "name": "",
          "type": "address"
        }
      ],
      "stateMutability": "view",
      "type": "function"
    },
    {
      "inputs": [],
      "name": "getListingPrice",
      "outputs": [
        {
          "internalType": "uint256",
          "name": "",
          "type": "uint256"
        }
      ],
      "stateMutability": "view",
      "type": "function"
    },
    {
      "inputs": [
        {
          "internalType": "address",
          "name": "owner",
          "type": "address"
        },
        {
          "internalType": "address",
          "name": "operator",
          "type": "address"
        }
      ],
      "name": "isApprovedForAll",
      "outputs": [
        {
          "internalType": "bool",
          "name": "",
          "type": "bool"
        }
      ],
      "stateMutability": "view",
      "type": "function"
    },
    {
      "inputs": [],
      "name": "name",
      "outputs": [
        {
          "internalType": "string",
          "name": "",
          "type": "string"
        }
      ],
      "stateMutability": "view",
      "type": "function"
    },
    {
      "inputs": [
        {
          "internalType": "uint256",
          "name": "tokenId",
          "type": "uint256"
        }
      ],
      "name": "ownerOf",
      "outputs": [
        {
          "internalType": "address",
          "name": "",
          "type": "address"
        }
      ],
      "stateMutability": "view",
      "type": "function"
    },
    {
      "inputs": [
        {
          "internalType": "uint256",
          "name": "tokenId",
          "type": "uint256"
        },
        {
          "internalType": "uint256",
          "name": "price",
          "type": "uint256"
        }
      ],
      "name": "resellToken",
      "outputs": [],
      "stateMutability": "payable",
      "type": "function"
    },
    {
      "inputs": [
        {
          "internalType": "address",
          "name": "from",
          "type": "address"
        },
        {
          "internalType": "address",
          "name": "to",
          "type": "address"
        },
        {
          "internalType": "uint256",
          "name": "tokenId",
          "type": "uint256"
        }
      ],
      "name": "safeTransferFrom",
      "outputs": [],
      "stateMutability": "nonpayable",
      "type": "function"
    },
    {
      "inputs": [
        {
          "internalType": "address",
          "name": "from",
          "type": "address"
        },
        {
          "internalType": "address",
          "name": "to",
          "type": "address"
        },
        {
          "internalType": "uint256",
          "name": "tokenId",
          "type": "uint256"
        },
        {
          "internalType": "bytes",
          "name": "_data",
          "type": "bytes"
        }
      ],
      "name": "safeTransferFrom",
      "outputs": [],
      "stateMutability": "nonpayable",
      "type": "function"
    },
    {
      "inputs": [
        {
          "internalType": "address",
          "name": "operator",
          "type": "address"
        },
        {
          "internalType": "bool",
          "name": "approved",
          "type": "bool"
        }
      ],
      "name": "setApprovalForAll",
      "outputs": [],
      "stateMutability": "nonpayable",
      "type": "function"
    },
    {
      "inputs": [
        {
          "internalType": "bytes4",
          "name": "interfaceId",
          "type": "bytes4"
        }
      ],
      "name": "supportsInterface",
      "outputs": [
        {
          "internalType": "bool",
          "name": "",
          "type": "bool"
        }
      ],
      "stateMutability": "view",
      "type": "function"
    },
    {
      "inputs": [],
      "name": "symbol",
      "outputs": [
        {
          "internalType": "string",
          "name": "",
          "type": "string"
        }
      ],
      "stateMutability": "view",
      "type": "function"
    },
    {
      "inputs": [
        {
          "internalType": "uint256",
          "name": "tokenId",
          "type": "uint256"
        }
      ],
      "name": "tokenURI",
      "outputs": [
        {
          "internalType": "string",
          "name": "",
          "type": "string"
        }
      ],
      "stateMutability": "view",
      "type": "function"
    },
    {
      "inputs": [
        {
          "internalType": "address",
          "name": "from",
          "type": "address"
        },
        {
          "internalType": "address",
          "name": "to",
          "type": "address"
        },
        {
          "internalType": "uint256",
          "name": "tokenId",
          "type": "uint256"
        }
      ],
      "name": "transferFrom",
      "outputs": [],
      "stateMutability": "nonpayable",
      "type": "function"
    },
    {
      "inputs": [
        {
          "internalType": "uint256",
          "name": "_listingPrice",
          "type": "uint256"
        }
      ],
      "name": "updateListingPrice",
      "outputs": [],
      "stateMutability": "payable",
      "type": "function"
    }
  ],
  "bytecode": "0x60806040526658d15e176280006009553480156200001c57600080fd5b506040518060400160405280600b81526020017f4f70656e537765657065720000000000000000000000000000000000000000008152506040518060400160405280600381526020017f49544d00000000000000000000000000000000000000000000000000000000008152508160009080519060200190620000a192919062000104565b508060019080519060200190620000ba92919062000104565b50505033600a60006101000a81548173ffffffffffffffffffffffffffffffffffffffff021916908373ffffffffffffffffffffffffffffffffffffffff16021790555062000219565b8280546200011290620001b4565b90600052602060002090601f01602090048101928262000136576000855562000182565b82601f106200015157805160ff191683800117855562000182565b8280016001018555821562000182579182015b828111156200018157825182559160200191906001019062000164565b5b50905062000191919062000195565b5090565b5b80821115620001b057600081600090555060010162000196565b5090565b60006002820490506001821680620001cd57607f821691505b60208210811415620001e457620001e3620001ea565b5b50919050565b7f4e487b7100000000000000000000000000000000000000000000000000000000600052602260045260246000fd5b61435380620002296000396000f3fe60806040526004361061012a5760003560e01c80636352211e116100ab578063ae677aa31161006f578063ae677aa3146103f9578063b88d4fde14610415578063be9af5361461043e578063c87b56dd1461045a578063e219fc7514610497578063e985e9c5146104b35761012a565b80636352211e146102fb57806370a082311461033857806372b3b6201461037557806395d89b41146103a5578063a22cb465146103d05761012a565b8063128ae712116100f2578063128ae7121461022857806312e855851461025357806323b872dd1461027e57806342842e0e146102a757806345f8fa80146102d05761012a565b806301ffc9a71461012f57806306fdde031461016c578063081812fc14610197578063095ea7b3146101d45780630f08efe0146101fd575b600080fd5b34801561013b57600080fd5b5061015660048036038101906101519190612e93565b6104f0565b604051610163919061356d565b60405180910390f35b34801561017857600080fd5b506101816105d2565b60405161018e9190613588565b60405180910390f35b3480156101a357600080fd5b506101be60048036038101906101b99190612f39565b610664565b6040516101cb919061349f565b60405180910390f35b3480156101e057600080fd5b506101fb60048036038101906101f69190612e57565b6106e9565b005b34801561020957600080fd5b50610212610801565b60405161021f919061354b565b60405180910390f35b34801561023457600080fd5b5061023d610aad565b60405161024a919061354b565b60405180910390f35b34801561025f57600080fd5b50610268610de7565b604051610275919061386a565b60405180910390f35b34801561028a57600080fd5b506102a560048036038101906102a09190612d51565b610df1565b005b3480156102b357600080fd5b506102ce60048036038101906102c99190612d51565b610e51565b005b3480156102dc57600080fd5b506102e5610e71565b6040516102f2919061354b565b60405180910390f35b34801561030757600080fd5b50610322600480360381019061031d9190612f39565b6111ab565b60405161032f919061349f565b60405180910390f35b34801561034457600080fd5b5061035f600480360381019061035a9190612cec565b61125d565b60405161036c919061386a565b60405180910390f35b61038f600480360381019061038a9190612ee5565b611315565b60405161039c919061386a565b60405180910390f35b3480156103b157600080fd5b506103ba611357565b6040516103c79190613588565b60405180910390f35b3480156103dc57600080fd5b506103f760048036038101906103f29190612e1b565b6113e9565b005b610413600480360381019061040e9190612f39565b6113ff565b005b34801561042157600080fd5b5061043c60048036038101906104379190612da0565b611499565b005b61045860048036038101906104539190612f39565b6114fb565b005b34801561046657600080fd5b50610481600480360381019061047c9190612f39565b611733565b60405161048e9190613588565b60405180910390f35b6104b160048036038101906104ac9190612f62565b611885565b005b3480156104bf57600080fd5b506104da60048036038101906104d59190612d15565b611a7a565b6040516104e7919061356d565b60405180910390f35b60007f80ac58cd000000000000000000000000000000000000000000000000000000007bffffffffffffffffffffffffffffffffffffffffffffffffffffffff1916827bffffffffffffffffffffffffffffffffffffffffffffffffffffffff191614806105bb57507f5b5e139f000000000000000000000000000000000000000000000000000000007bffffffffffffffffffffffffffffffffffffffffffffffffffffffff1916827bffffffffffffffffffffffffffffffffffffffffffffffffffffffff1916145b806105cb57506105ca82611b0e565b5b9050919050565b6060600080546105e190613b0b565b80601f016020809104026020016040519081016040528092919081815260200182805461060d90613b0b565b801561065a5780601f1061062f5761010080835404028352916020019161065a565b820191906000526020600020905b81548152906001019060200180831161063d57829003601f168201915b5050505050905090565b600061066f82611b78565b6106ae576040517f08c379a00000000000000000000000000000000000000000000000000000000081526004016106a5906137aa565b60405180910390fd5b6004600083815260200190815260200160002060009054906101000a900473ffffffffffffffffffffffffffffffffffffffff169050919050565b60006106f4826111ab565b90508073ffffffffffffffffffffffffffffffffffffffff168373ffffffffffffffffffffffffffffffffffffffff161415610765576040517f08c379a000000000000000000000000000000000000000000000000000000000815260040161075c906137ea565b60405180910390fd5b8073ffffffffffffffffffffffffffffffffffffffff16610784611be4565b73ffffffffffffffffffffffffffffffffffffffff1614806107b357506107b2816107ad611be4565b611a7a565b5b6107f2576040517f08c379a00000000000000000000000000000000000000000000000000000000081526004016107e9906136aa565b60405180910390fd5b6107fc8383611bec565b505050565b6060600061080f6007611ca5565b9050600061081d6008611ca5565b826108289190613a0f565b90506000808267ffffffffffffffff81111561086d577f4e487b7100000000000000000000000000000000000000000000000000000000600052604160045260246000fd5b6040519080825280602002602001820160405280156108a657816020015b610893612ab3565b81526020019060019003908161088b5790505b50905060005b84811015610aa2573073ffffffffffffffffffffffffffffffffffffffff16600b60006001846108dc9190613988565b815260200190815260200160002060020160009054906101000a900473ffffffffffffffffffffffffffffffffffffffff1673ffffffffffffffffffffffffffffffffffffffff161415610a8f5760006001826109399190613988565b90506000600b60008381526020019081526020016000209050806040518060a0016040529081600082015481526020016001820160009054906101000a900473ffffffffffffffffffffffffffffffffffffffff1673ffffffffffffffffffffffffffffffffffffffff1673ffffffffffffffffffffffffffffffffffffffff1681526020016002820160009054906101000a900473ffffffffffffffffffffffffffffffffffffffff1673ffffffffffffffffffffffffffffffffffffffff1673ffffffffffffffffffffffffffffffffffffffff168152602001600382015481526020016004820160009054906101000a900460ff161515151581525050848681518110610a72577f4e487b7100000000000000000000000000000000000000000000000000000000600052603260045260246000fd5b6020026020010181905250600185610a8a9190613988565b945050505b8080610a9a90613b6e565b9150506108ac565b508094505050505090565b60606000610abb6007611ca5565b905060008060005b83811015610b64573373ffffffffffffffffffffffffffffffffffffffff16600b6000600184610af39190613988565b815260200190815260200160002060020160009054906101000a900473ffffffffffffffffffffffffffffffffffffffff1673ffffffffffffffffffffffffffffffffffffffff161415610b5157600183610b4e9190613988565b92505b8080610b5c90613b6e565b915050610ac3565b5060008267ffffffffffffffff811115610ba7577f4e487b7100000000000000000000000000000000000000000000000000000000600052604160045260246000fd5b604051908082528060200260200182016040528015610be057816020015b610bcd612ab3565b815260200190600190039081610bc55790505b50905060005b84811015610ddc573373ffffffffffffffffffffffffffffffffffffffff16600b6000600184610c169190613988565b815260200190815260200160002060020160009054906101000a900473ffffffffffffffffffffffffffffffffffffffff1673ffffffffffffffffffffffffffffffffffffffff161415610dc9576000600182610c739190613988565b90506000600b60008381526020019081526020016000209050806040518060a0016040529081600082015481526020016001820160009054906101000a900473ffffffffffffffffffffffffffffffffffffffff1673ffffffffffffffffffffffffffffffffffffffff1673ffffffffffffffffffffffffffffffffffffffff1681526020016002820160009054906101000a900473ffffffffffffffffffffffffffffffffffffffff1673ffffffffffffffffffffffffffffffffffffffff1673ffffffffffffffffffffffffffffffffffffffff168152602001600382015481526020016004820160009054906101000a900460ff161515151581525050848681518110610dac577f4e487b7100000000000000000000000000000000000000000000000000000000600052603260045260246000fd5b6020026020010181905250600185610dc49190613988565b945050505b8080610dd490613b6e565b915050610be6565b508094505050505090565b6000600954905090565b610e02610dfc611be4565b82611cb3565b610e41576040517f08c379a0000000000000000000000000000000000000000000000000000000008152600401610e389061382a565b60405180910390fd5b610e4c838383611d91565b505050565b610e6c83838360405180602001604052806000815250611499565b505050565b60606000610e7f6007611ca5565b905060008060005b83811015610f28573373ffffffffffffffffffffffffffffffffffffffff16600b6000600184610eb79190613988565b815260200190815260200160002060010160009054906101000a900473ffffffffffffffffffffffffffffffffffffffff1673ffffffffffffffffffffffffffffffffffffffff161415610f1557600183610f129190613988565b92505b8080610f2090613b6e565b915050610e87565b5060008267ffffffffffffffff811115610f6b577f4e487b7100000000000000000000000000000000000000000000000000000000600052604160045260246000fd5b604051908082528060200260200182016040528015610fa457816020015b610f91612ab3565b815260200190600190039081610f895790505b50905060005b848110156111a0573373ffffffffffffffffffffffffffffffffffffffff16600b6000600184610fda9190613988565b815260200190815260200160002060010160009054906101000a900473ffffffffffffffffffffffffffffffffffffffff1673ffffffffffffffffffffffffffffffffffffffff16141561118d5760006001826110379190613988565b90506000600b60008381526020019081526020016000209050806040518060a0016040529081600082015481526020016001820160009054906101000a900473ffffffffffffffffffffffffffffffffffffffff1673ffffffffffffffffffffffffffffffffffffffff1673ffffffffffffffffffffffffffffffffffffffff1681526020016002820160009054906101000a900473ffffffffffffffffffffffffffffffffffffffff1673ffffffffffffffffffffffffffffffffffffffff1673ffffffffffffffffffffffffffffffffffffffff168152602001600382015481526020016004820160009054906101000a900460ff161515151581525050848681518110611170577f4e487b7100000000000000000000000000000000000000000000000000000000600052603260045260246000fd5b60200260200101819052506001856111889190613988565b945050505b808061119890613b6e565b915050610faa565b508094505050505090565b6000806002600084815260200190815260200160002060009054906101000a900473ffffffffffffffffffffffffffffffffffffffff169050600073ffffffffffffffffffffffffffffffffffffffff168173ffffffffffffffffffffffffffffffffffffffff161415611254576040517f08c379a000000000000000000000000000000000000000000000000000000000815260040161124b906136ea565b60405180910390fd5b80915050919050565b60008073ffffffffffffffffffffffffffffffffffffffff168273ffffffffffffffffffffffffffffffffffffffff1614156112ce576040517f08c379a00000000000000000000000000000000000000000000000000000000081526004016112c5906136ca565b60405180910390fd5b600360008373ffffffffffffffffffffffffffffffffffffffff1673ffffffffffffffffffffffffffffffffffffffff168152602001908152602001600020549050919050565b60006113216007611ff8565b600061132d6007611ca5565b9050611339338261200e565b61134381856121e8565b61134d818461225c565b8091505092915050565b60606001805461136690613b0b565b80601f016020809104026020016040519081016040528092919081815260200182805461139290613b0b565b80156113df5780601f106113b4576101008083540402835291602001916113df565b820191906000526020600020905b8154815290600101906020018083116113c257829003601f168201915b5050505050905090565b6113fb6113f4611be4565b838361245f565b5050565b3373ffffffffffffffffffffffffffffffffffffffff16600a60009054906101000a900473ffffffffffffffffffffffffffffffffffffffff1673ffffffffffffffffffffffffffffffffffffffff161461148f576040517f08c379a00000000000000000000000000000000000000000000000000000000081526004016114869061366a565b60405180910390fd5b8060098190555050565b6114aa6114a4611be4565b83611cb3565b6114e9576040517f08c379a00000000000000000000000000000000000000000000000000000000081526004016114e09061382a565b60405180910390fd5b6114f5848484846125cc565b50505050565b6000600b6000838152602001908152602001600020600301549050803414611558576040517f08c379a000000000000000000000000000000000000000000000000000000000815260040161154f9061372a565b60405180910390fd5b33600b600084815260200190815260200160002060020160006101000a81548173ffffffffffffffffffffffffffffffffffffffff021916908373ffffffffffffffffffffffffffffffffffffffff1602179055506001600b600084815260200190815260200160002060040160006101000a81548160ff0219169083151502179055506000600b600084815260200190815260200160002060010160006101000a81548173ffffffffffffffffffffffffffffffffffffffff021916908373ffffffffffffffffffffffffffffffffffffffff16021790555061163c6008611ff8565b611647303384611d91565b600a60009054906101000a900473ffffffffffffffffffffffffffffffffffffffff1673ffffffffffffffffffffffffffffffffffffffff166108fc6009549081150290604051600060405180830381858888f193505050501580156116b1573d6000803e3d6000fd5b50600b600083815260200190815260200160002060010160009054906101000a900473ffffffffffffffffffffffffffffffffffffffff1673ffffffffffffffffffffffffffffffffffffffff166108fc349081150290604051600060405180830381858888f1935050505015801561172e573d6000803e3d6000fd5b505050565b606061173e82611b78565b61177d576040517f08c379a00000000000000000000000000000000000000000000000000000000081526004016117749061376a565b60405180910390fd5b600060066000848152602001908152602001600020805461179d90613b0b565b80601f01602080910402602001604051908101604052809291908181526020018280546117c990613b0b565b80156118165780601f106117eb57610100808354040283529160200191611816565b820191906000526020600020905b8154815290600101906020018083116117f957829003601f168201915b505050505090506000611827612628565b905060008151141561183d578192505050611880565b60008251111561187257808260405160200161185a92919061347b565b60405160208183030381529060405292505050611880565b61187b8461263f565b925050505b919050565b3373ffffffffffffffffffffffffffffffffffffffff16600b600084815260200190815260200160002060020160009054906101000a900473ffffffffffffffffffffffffffffffffffffffff1673ffffffffffffffffffffffffffffffffffffffff1614611929576040517f08c379a00000000000000000000000000000000000000000000000000000000081526004016119209061378a565b60405180910390fd5b600954341461196d576040517f08c379a00000000000000000000000000000000000000000000000000000000081526004016119649061380a565b60405180910390fd5b6000600b600084815260200190815260200160002060040160006101000a81548160ff02191690831515021790555080600b60008481526020019081526020016000206003018190555033600b600084815260200190815260200160002060010160006101000a81548173ffffffffffffffffffffffffffffffffffffffff021916908373ffffffffffffffffffffffffffffffffffffffff16021790555030600b600084815260200190815260200160002060020160006101000a81548173ffffffffffffffffffffffffffffffffffffffff021916908373ffffffffffffffffffffffffffffffffffffffff160217905550611a6b60086126e6565b611a76333084611d91565b5050565b6000600560008473ffffffffffffffffffffffffffffffffffffffff1673ffffffffffffffffffffffffffffffffffffffff16815260200190815260200160002060008373ffffffffffffffffffffffffffffffffffffffff1673ffffffffffffffffffffffffffffffffffffffff16815260200190815260200160002060009054906101000a900460ff16905092915050565b60007f01ffc9a7000000000000000000000000000000000000000000000000000000007bffffffffffffffffffffffffffffffffffffffffffffffffffffffff1916827bffffffffffffffffffffffffffffffffffffffffffffffffffffffff1916149050919050565b60008073ffffffffffffffffffffffffffffffffffffffff166002600084815260200190815260200160002060009054906101000a900473ffffffffffffffffffffffffffffffffffffffff1673ffffffffffffffffffffffffffffffffffffffff1614159050919050565b600033905090565b816004600083815260200190815260200160002060006101000a81548173ffffffffffffffffffffffffffffffffffffffff021916908373ffffffffffffffffffffffffffffffffffffffff160217905550808273ffffffffffffffffffffffffffffffffffffffff16611c5f836111ab565b73ffffffffffffffffffffffffffffffffffffffff167f8c5be1e5ebec7d5bd14f71427d1e84f3dd0314c0f7b2291e5b200ac8c7c3b92560405160405180910390a45050565b600081600001549050919050565b6000611cbe82611b78565b611cfd576040517f08c379a0000000000000000000000000000000000000000000000000000000008152600401611cf49061368a565b60405180910390fd5b6000611d08836111ab565b90508073ffffffffffffffffffffffffffffffffffffffff168473ffffffffffffffffffffffffffffffffffffffff161480611d7757508373ffffffffffffffffffffffffffffffffffffffff16611d5f84610664565b73ffffffffffffffffffffffffffffffffffffffff16145b80611d885750611d878185611a7a565b5b91505092915050565b8273ffffffffffffffffffffffffffffffffffffffff16611db1826111ab565b73ffffffffffffffffffffffffffffffffffffffff1614611e07576040517f08c379a0000000000000000000000000000000000000000000000000000000008152600401611dfe906135ea565b60405180910390fd5b600073ffffffffffffffffffffffffffffffffffffffff168273ffffffffffffffffffffffffffffffffffffffff161415611e77576040517f08c379a0000000000000000000000000000000000000000000000000000000008152600401611e6e9061362a565b60405180910390fd5b611e82838383612742565b611e8d600082611bec565b6001600360008573ffffffffffffffffffffffffffffffffffffffff1673ffffffffffffffffffffffffffffffffffffffff1681526020019081526020016000206000828254611edd9190613a0f565b925050819055506001600360008473ffffffffffffffffffffffffffffffffffffffff1673ffffffffffffffffffffffffffffffffffffffff1681526020019081526020016000206000828254611f349190613988565b92505081905550816002600083815260200190815260200160002060006101000a81548173ffffffffffffffffffffffffffffffffffffffff021916908373ffffffffffffffffffffffffffffffffffffffff160217905550808273ffffffffffffffffffffffffffffffffffffffff168473ffffffffffffffffffffffffffffffffffffffff167fddf252ad1be2c89b69c2b068fc378daa952ba7f163c4a11628f55a4df523b3ef60405160405180910390a4611ff3838383612747565b505050565b6001816000016000828254019250508190555050565b600073ffffffffffffffffffffffffffffffffffffffff168273ffffffffffffffffffffffffffffffffffffffff16141561207e576040517f08c379a00000000000000000000000000000000000000000000000000000000081526004016120759061374a565b60405180910390fd5b61208781611b78565b156120c7576040517f08c379a00000000000000000000000000000000000000000000000000000000081526004016120be9061360a565b60405180910390fd5b6120d360008383612742565b6001600360008473ffffffffffffffffffffffffffffffffffffffff1673ffffffffffffffffffffffffffffffffffffffff16815260200190815260200160002060008282546121239190613988565b92505081905550816002600083815260200190815260200160002060006101000a81548173ffffffffffffffffffffffffffffffffffffffff021916908373ffffffffffffffffffffffffffffffffffffffff160217905550808273ffffffffffffffffffffffffffffffffffffffff16600073ffffffffffffffffffffffffffffffffffffffff167fddf252ad1be2c89b69c2b068fc378daa952ba7f163c4a11628f55a4df523b3ef60405160405180910390a46121e460008383612747565b5050565b6121f182611b78565b612230576040517f08c379a00000000000000000000000000000000000000000000000000000000081526004016122279061370a565b60405180910390fd5b80600660008481526020019081526020016000209080519060200190612257929190612b10565b505050565b6000811161229f576040517f08c379a00000000000000000000000000000000000000000000000000000000081526004016122969061384a565b60405180910390fd5b60095434146122e3576040517f08c379a00000000000000000000000000000000000000000000000000000000081526004016122da9061380a565b60405180910390fd5b6040518060a001604052808381526020013373ffffffffffffffffffffffffffffffffffffffff1681526020013073ffffffffffffffffffffffffffffffffffffffff16815260200182815260200160001515815250600b60008481526020019081526020016000206000820151816000015560208201518160010160006101000a81548173ffffffffffffffffffffffffffffffffffffffff021916908373ffffffffffffffffffffffffffffffffffffffff16021790555060408201518160020160006101000a81548173ffffffffffffffffffffffffffffffffffffffff021916908373ffffffffffffffffffffffffffffffffffffffff1602179055506060820151816003015560808201518160040160006101000a81548160ff02191690831515021790555090505061241c333084611d91565b817fb640004f1d14576d0c209e240cad0410e0d8c0c33a09375861fbadae2588a98d333084600060405161245394939291906134ba565b60405180910390a25050565b8173ffffffffffffffffffffffffffffffffffffffff168373ffffffffffffffffffffffffffffffffffffffff1614156124ce576040517f08c379a00000000000000000000000000000000000000000000000000000000081526004016124c59061364a565b60405180910390fd5b80600560008573ffffffffffffffffffffffffffffffffffffffff1673ffffffffffffffffffffffffffffffffffffffff16815260200190815260200160002060008473ffffffffffffffffffffffffffffffffffffffff1673ffffffffffffffffffffffffffffffffffffffff16815260200190815260200160002060006101000a81548160ff0219169083151502179055508173ffffffffffffffffffffffffffffffffffffffff168373ffffffffffffffffffffffffffffffffffffffff167f17307eab39ab6107e8899845ad3d59bd9653f200f220920489ca2b5937696c31836040516125bf919061356d565b60405180910390a3505050565b6125d7848484611d91565b6125e38484848461274c565b612622576040517f08c379a0000000000000000000000000000000000000000000000000000000008152600401612619906135ca565b60405180910390fd5b50505050565b606060405180602001604052806000815250905090565b606061264a82611b78565b612689576040517f08c379a0000000000000000000000000000000000000000000000000000000008152600401612680906137ca565b60405180910390fd5b6000612693612628565b905060008151116126b357604051806020016040528060008152506126de565b806126bd846128e3565b6040516020016126ce92919061347b565b6040516020818303038152906040525b915050919050565b60008160000154905060008111612732576040517f08c379a0000000000000000000000000000000000000000000000000000000008152600401612729906135aa565b60405180910390fd5b6001810382600001819055505050565b505050565b505050565b600061276d8473ffffffffffffffffffffffffffffffffffffffff16612a90565b156128d6578373ffffffffffffffffffffffffffffffffffffffff1663150b7a02612796611be4565b8786866040518563ffffffff1660e01b81526004016127b894939291906134ff565b602060405180830381600087803b1580156127d257600080fd5b505af192505050801561280357506040513d601f19601f820116820180604052508101906128009190612ebc565b60015b612886573d8060008114612833576040519150601f19603f3d011682016040523d82523d6000602084013e612838565b606091505b5060008151141561287e576040517f08c379a0000000000000000000000000000000000000000000000000000000008152600401612875906135ca565b60405180910390fd5b805181602001fd5b63150b7a0260e01b7bffffffffffffffffffffffffffffffffffffffffffffffffffffffff1916817bffffffffffffffffffffffffffffffffffffffffffffffffffffffff1916149150506128db565b600190505b949350505050565b6060600082141561292b576040518060400160405280600181526020017f30000000000000000000000000000000000000000000000000000000000000008152509050612a8b565b600082905060005b6000821461295d57808061294690613b6e565b915050600a8261295691906139de565b9150612933565b60008167ffffffffffffffff81111561299f577f4e487b7100000000000000000000000000000000000000000000000000000000600052604160045260246000fd5b6040519080825280601f01601f1916602001820160405280156129d15781602001600182028036833780820191505090505b5090505b60008514612a84576001826129ea9190613a0f565b9150600a856129f99190613bb7565b6030612a059190613988565b60f81b818381518110612a41577f4e487b7100000000000000000000000000000000000000000000000000000000600052603260045260246000fd5b60200101907effffffffffffffffffffffffffffffffffffffffffffffffffffffffffffff1916908160001a905350600a85612a7d91906139de565b94506129d5565b8093505050505b919050565b6000808273ffffffffffffffffffffffffffffffffffffffff163b119050919050565b6040518060a0016040528060008152602001600073ffffffffffffffffffffffffffffffffffffffff168152602001600073ffffffffffffffffffffffffffffffffffffffff168152602001600081526020016000151581525090565b828054612b1c90613b0b565b90600052602060002090601f016020900481019282612b3e5760008555612b85565b82601f10612b5757805160ff1916838001178555612b85565b82800160010185558215612b85579182015b82811115612b84578251825591602001919060010190612b69565b5b509050612b929190612b96565b5090565b5b80821115612baf576000816000905550600101612b97565b5090565b6000612bc6612bc1846138aa565b613885565b905082815260208101848484011115612bde57600080fd5b612be9848285613ac9565b509392505050565b6000612c04612bff846138db565b613885565b905082815260208101848484011115612c1c57600080fd5b612c27848285613ac9565b509392505050565b600081359050612c3e816142c1565b92915050565b600081359050612c53816142d8565b92915050565b600081359050612c68816142ef565b92915050565b600081519050612c7d816142ef565b92915050565b600082601f830112612c9457600080fd5b8135612ca4848260208601612bb3565b91505092915050565b600082601f830112612cbe57600080fd5b8135612cce848260208601612bf1565b91505092915050565b600081359050612ce681614306565b92915050565b600060208284031215612cfe57600080fd5b6000612d0c84828501612c2f565b91505092915050565b60008060408385031215612d2857600080fd5b6000612d3685828601612c2f565b9250506020612d4785828601612c2f565b9150509250929050565b600080600060608486031215612d6657600080fd5b6000612d7486828701612c2f565b9350506020612d8586828701612c2f565b9250506040612d9686828701612cd7565b9150509250925092565b60008060008060808587031215612db657600080fd5b6000612dc487828801612c2f565b9450506020612dd587828801612c2f565b9350506040612de687828801612cd7565b925050606085013567ffffffffffffffff811115612e0357600080fd5b612e0f87828801612c83565b91505092959194509250565b60008060408385031215612e2e57600080fd5b6000612e3c85828601612c2f565b9250506020612e4d85828601612c44565b9150509250929050565b60008060408385031215612e6a57600080fd5b6000612e7885828601612c2f565b9250506020612e8985828601612cd7565b9150509250929050565b600060208284031215612ea557600080fd5b6000612eb384828501612c59565b91505092915050565b600060208284031215612ece57600080fd5b6000612edc84828501612c6e565b91505092915050565b60008060408385031215612ef857600080fd5b600083013567ffffffffffffffff811115612f1257600080fd5b612f1e85828601612cad565b9250506020612f2f85828601612cd7565b9150509250929050565b600060208284031215612f4b57600080fd5b6000612f5984828501612cd7565b91505092915050565b60008060408385031215612f7557600080fd5b6000612f8385828601612cd7565b9250506020612f9485828601612cd7565b9150509250929050565b6000612faa83836133f5565b60a08301905092915050565b612fbf81613a55565b82525050565b612fce81613a43565b82525050565b6000612fdf8261391c565b612fe9818561394a565b9350612ff48361390c565b8060005b8381101561302557815161300c8882612f9e565b97506130178361393d565b925050600181019050612ff8565b5085935050505092915050565b61303b81613a67565b82525050565b61304a81613a67565b82525050565b600061305b82613927565b613065818561395b565b9350613075818560208601613ad8565b61307e81613ca4565b840191505092915050565b600061309482613932565b61309e818561396c565b93506130ae818560208601613ad8565b6130b781613ca4565b840191505092915050565b60006130cd82613932565b6130d7818561397d565b93506130e7818560208601613ad8565b80840191505092915050565b6000613100601b8361396c565b915061310b82613cb5565b602082019050919050565b600061312360328361396c565b915061312e82613cde565b604082019050919050565b600061314660258361396c565b915061315182613d2d565b604082019050919050565b6000613169601c8361396c565b915061317482613d7c565b602082019050919050565b600061318c60248361396c565b915061319782613da5565b604082019050919050565b60006131af60198361396c565b91506131ba82613df4565b602082019050919050565b60006131d260348361396c565b91506131dd82613e1d565b604082019050919050565b60006131f5602c8361396c565b915061320082613e6c565b604082019050919050565b600061321860388361396c565b915061322382613ebb565b604082019050919050565b600061323b602a8361396c565b915061324682613f0a565b604082019050919050565b600061325e60298361396c565b915061326982613f59565b604082019050919050565b6000613281602e8361396c565b915061328c82613fa8565b604082019050919050565b60006132a460408361396c565b91506132af82613ff7565b604082019050919050565b60006132c760208361396c565b91506132d282614046565b602082019050919050565b60006132ea60318361396c565b91506132f58261406f565b604082019050919050565b600061330d602a8361396c565b9150613318826140be565b604082019050919050565b6000613330602c8361396c565b915061333b8261410d565b604082019050919050565b6000613353602f8361396c565b915061335e8261415c565b604082019050919050565b600061337660218361396c565b9150613381826141ab565b604082019050919050565b600061339960248361396c565b91506133a4826141fa565b604082019050919050565b60006133bc60318361396c565b91506133c782614249565b604082019050919050565b60006133df601c8361396c565b91506133ea82614298565b602082019050919050565b60a08201600082015161340b600085018261345d565b50602082015161341e6020850182612fb6565b5060408201516134316040850182612fb6565b506060820151613444606085018261345d565b5060808201516134576080850182613032565b50505050565b61346681613abf565b82525050565b61347581613abf565b82525050565b600061348782856130c2565b915061349382846130c2565b91508190509392505050565b60006020820190506134b46000830184612fc5565b92915050565b60006080820190506134cf6000830187612fc5565b6134dc6020830186612fc5565b6134e9604083018561346c565b6134f66060830184613041565b95945050505050565b60006080820190506135146000830187612fc5565b6135216020830186612fc5565b61352e604083018561346c565b81810360608301526135408184613050565b905095945050505050565b600060208201905081810360008301526135658184612fd4565b905092915050565b60006020820190506135826000830184613041565b92915050565b600060208201905081810360008301526135a28184613089565b905092915050565b600060208201905081810360008301526135c3816130f3565b9050919050565b600060208201905081810360008301526135e381613116565b9050919050565b6000602082019050818103600083015261360381613139565b9050919050565b600060208201905081810360008301526136238161315c565b9050919050565b600060208201905081810360008301526136438161317f565b9050919050565b60006020820190508181036000830152613663816131a2565b9050919050565b60006020820190508181036000830152613683816131c5565b9050919050565b600060208201905081810360008301526136a3816131e8565b9050919050565b600060208201905081810360008301526136c38161320b565b9050919050565b600060208201905081810360008301526136e38161322e565b9050919050565b6000602082019050818103600083015261370381613251565b9050919050565b6000602082019050818103600083015261372381613274565b9050919050565b6000602082019050818103600083015261374381613297565b9050919050565b60006020820190508181036000830152613763816132ba565b9050919050565b60006020820190508181036000830152613783816132dd565b9050919050565b600060208201905081810360008301526137a381613300565b9050919050565b600060208201905081810360008301526137c381613323565b9050919050565b600060208201905081810360008301526137e381613346565b9050919050565b6000602082019050818103600083015261380381613369565b9050919050565b600060208201905081810360008301526138238161338c565b9050919050565b60006020820190508181036000830152613843816133af565b9050919050565b60006020820190508181036000830152613863816133d2565b9050919050565b600060208201905061387f600083018461346c565b92915050565b600061388f6138a0565b905061389b8282613b3d565b919050565b6000604051905090565b600067ffffffffffffffff8211156138c5576138c4613c75565b5b6138ce82613ca4565b9050602081019050919050565b600067ffffffffffffffff8211156138f6576138f5613c75565b5b6138ff82613ca4565b9050602081019050919050565b6000819050602082019050919050565b600081519050919050565b600081519050919050565b600081519050919050565b6000602082019050919050565b600082825260208201905092915050565b600082825260208201905092915050565b600082825260208201905092915050565b600081905092915050565b600061399382613abf565b915061399e83613abf565b9250827fffffffffffffffffffffffffffffffffffffffffffffffffffffffffffffffff038211156139d3576139d2613be8565b5b828201905092915050565b60006139e982613abf565b91506139f483613abf565b925082613a0457613a03613c17565b5b828204905092915050565b6000613a1a82613abf565b9150613a2583613abf565b925082821015613a3857613a37613be8565b5b828203905092915050565b6000613a4e82613a9f565b9050919050565b6000613a6082613a9f565b9050919050565b60008115159050919050565b60007fffffffff0000000000000000000000000000000000000000000000000000000082169050919050565b600073ffffffffffffffffffffffffffffffffffffffff82169050919050565b6000819050919050565b82818337600083830152505050565b60005b83811015613af6578082015181840152602081019050613adb565b83811115613b05576000848401525b50505050565b60006002820490506001821680613b2357607f821691505b60208210811415613b3757613b36613c46565b5b50919050565b613b4682613ca4565b810181811067ffffffffffffffff82111715613b6557613b64613c75565b5b80604052505050565b6000613b7982613abf565b91507fffffffffffffffffffffffffffffffffffffffffffffffffffffffffffffffff821415613bac57613bab613be8565b5b600182019050919050565b6000613bc282613abf565b9150613bcd83613abf565b925082613bdd57613bdc613c17565b5b828206905092915050565b7f4e487b7100000000000000000000000000000000000000000000000000000000600052601160045260246000fd5b7f4e487b7100000000000000000000000000000000000000000000000000000000600052601260045260246000fd5b7f4e487b7100000000000000000000000000000000000000000000000000000000600052602260045260246000fd5b7f4e487b7100000000000000000000000000000000000000000000000000000000600052604160045260246000fd5b6000601f19601f8301169050919050565b7f436f756e7465723a2064656372656d656e74206f766572666c6f770000000000600082015250565b7f4552433732313a207472616e7366657220746f206e6f6e20455243373231526560008201527f63656976657220696d706c656d656e7465720000000000000000000000000000602082015250565b7f4552433732313a207472616e736665722066726f6d20696e636f72726563742060008201527f6f776e6572000000000000000000000000000000000000000000000000000000602082015250565b7f4552433732313a20746f6b656e20616c7265616479206d696e74656400000000600082015250565b7f4552433732313a207472616e7366657220746f20746865207a65726f2061646460008201527f7265737300000000000000000000000000000000000000000000000000000000602082015250565b7f4552433732313a20617070726f766520746f2063616c6c657200000000000000600082015250565b7f4f6e6c79206d61726b6574706c616365206f776e65722063616e20757064617460008201527f6520746865206c697374696e6720707269636521000000000000000000000000602082015250565b7f4552433732313a206f70657261746f7220717565727920666f72206e6f6e657860008201527f697374656e7420746f6b656e0000000000000000000000000000000000000000602082015250565b7f4552433732313a20617070726f76652063616c6c6572206973206e6f74206f7760008201527f6e6572206e6f7220617070726f76656420666f7220616c6c0000000000000000602082015250565b7f4552433732313a2062616c616e636520717565727920666f7220746865207a6560008201527f726f206164647265737300000000000000000000000000000000000000000000602082015250565b7f4552433732313a206f776e657220717565727920666f72206e6f6e657869737460008201527f656e7420746f6b656e0000000000000000000000000000000000000000000000602082015250565b7f45524337323155524953746f726167653a2055524920736574206f66206e6f6e60008201527f6578697374656e7420746f6b656e000000000000000000000000000000000000602082015250565b7f506c65617365207375626d6974207468652061736b696e67207072696365206960008201527f6e206f7264657220746f20636f6d706c65746520746865207075726368617365602082015250565b7f4552433732313a206d696e7420746f20746865207a65726f2061646472657373600082015250565b7f45524337323155524953746f726167653a2055524920717565727920666f722060008201527f6e6f6e6578697374656e7420746f6b656e000000000000000000000000000000602082015250565b7f4f6e6c79206974656d206f776e65722063616e20706572666f726d207468697360008201527f206f7065726174696f6e00000000000000000000000000000000000000000000602082015250565b7f4552433732313a20617070726f76656420717565727920666f72206e6f6e657860008201527f697374656e7420746f6b656e0000000000000000000000000000000000000000602082015250565b7f4552433732314d657461646174613a2055524920717565727920666f72206e6f60008201527f6e6578697374656e7420746f6b656e0000000000000000000000000000000000602082015250565b7f4552433732313a20617070726f76616c20746f2063757272656e74206f776e6560008201527f7200000000000000000000000000000000000000000000000000000000000000602082015250565b7f5072696365206d75737420626520657175616c20746f206c697374696e67207060008201527f7269636500000000000000000000000000000000000000000000000000000000602082015250565b7f4552433732313a207472616e736665722063616c6c6572206973206e6f74206f60008201527f776e6572206e6f7220617070726f766564000000000000000000000000000000602082015250565b7f5072696365206d7573742062652067726561746572207468616e203000000000600082015250565b6142ca81613a43565b81146142d557600080fd5b50565b6142e181613a67565b81146142ec57600080fd5b50565b6142f881613a73565b811461430357600080fd5b50565b61430f81613abf565b811461431a57600080fd5b5056fea26469706673582212205626c82bee32048160bdec3c9db1a83279f84778316b0a79e86dd6c115db79f764736f6c63430008040033",
  "linkReferences": {},
  "deployedLinkReferences": {}
}